{"contracts/SwapPool.sol":{"SwapPool":{"abi":[{"inputs":[],"stateMutability":"nonpayable","type":"constructor"},{"inputs":[{"internalType":"uint160","name":"sqrtPriceX96","type":"uint160"}],"name":"intialize","outputs":[],"stateMutability":"nonpayable","type":"function"},{"inputs":[{"internalType":"address","name":"recipient","type":"address"},{"internalType":"int24","name":"tickerLower","type":"int24"},{"internalType":"int24","name":"tickerUpper","type":"int24"},{"internalType":"uint128","name":"amount","type":"uint128"}],"name":"mint","outputs":[{"internalType":"uint256","name":"amount0","type":"uint256"},{"internalType":"uint256","name":"amount1","type":"uint256"}],"stateMutability":"nonpayable","type":"function"},{"inputs":[],"name":"slot0","outputs":[{"internalType":"uint160","name":"sqrtPriceX96","type":"uint160"},{"internalType":"int24","name":"tick","type":"int24"}],"stateMutability":"view","type":"function"},{"inputs":[{"internalType":"address","name":"recipient","type":"address"},{"internalType":"bool","name":"zeroForOne","type":"bool"},{"internalType":"int256","name":"amountSpecified","type":"int256"},{"internalType":"uint160","name":"sqrtPriceLimitX96","type":"uint160"}],"name":"swap","outputs":[{"internalType":"int256","name":"amount0","type":"int256"},{"internalType":"int256","name":"amount1","type":"int256"}],"stateMutability":"nonpayable","type":"function"},{"inputs":[],"name":"tickSpacing","outputs":[{"internalType":"int24","name":"","type":"int24"}],"stateMutability":"view","type":"function"},{"inputs":[],"name":"token0","outputs":[{"internalType":"address","name":"","type":"address"}],"stateMutability":"view","type":"function"},{"inputs":[],"name":"token1","outputs":[{"internalType":"address","name":"","type":"address"}],"stateMutability":"view","type":"function"}],"evm":{"bytecode":{"linkReferences":{"contracts/libraries/TickMath.sol":{"TickMath":[{"length":20,"start":1024}]}},"object":"60e060405234801561001057600080fd5b5060003373ffffffffffffffffffffffffffffffffffffffff1663890357306040518163ffffffff1660e01b8152600401606060405180830381865afa15801561005e573d6000803e3d6000fd5b505050506040513d601f19601f82011682018060405250810190610082919061019e565b8093508173ffffffffffffffffffffffffffffffffffffffff1660a09073ffffffffffffffffffffffffffffffffffffffff168152508273ffffffffffffffffffffffffffffffffffffffff1660809073ffffffffffffffffffffffffffffffffffffffff168152505050508060020b60c08160020b81525050506101f1565b600080fd5b600073ffffffffffffffffffffffffffffffffffffffff82169050919050565b600061013282610107565b9050919050565b61014281610127565b811461014d57600080fd5b50565b60008151905061015f81610139565b92915050565b60008160020b9050919050565b61017b81610165565b811461018657600080fd5b50565b60008151905061019881610172565b92915050565b6000806000606084860312156101b7576101b6610102565b5b60006101c586828701610150565b93505060206101d686828701610150565b92505060406101e786828701610189565b9150509250925092565b60805160a05160c05161077e61022060003960006103170152600061033b0152600061017b015261077e6000f3fe608060405234801561001057600080fd5b506004361061007d5760003560e01c8063b8cca34e1161005b578063b8cca34e146100db578063c31b8d7a1461010c578063d0c93a7c1461013d578063d21220a71461015b5761007d565b80630dfe1681146100825780633850c7bd146100a05780637169449b146100bf575b600080fd5b61008a610179565b604051610097919061039e565b60405180910390f35b6100a861019d565b6040516100b69291906103e4565b60405180910390f35b6100d960048036038101906100d4919061043e565b6101dc565b005b6100f560048036038101906100f0919061050b565b6102fd565b60405161010392919061058b565b60405180910390f35b61012660048036038101906101219190610622565b610309565b604051610134929190610698565b60405180910390f35b610145610315565b60405161015291906106c1565b60405180910390f35b610163610339565b604051610170919061039e565b60405180910390f35b7f000000000000000000000000000000000000000000000000000000000000000081565b60008060000160009054906101000a900473ffffffffffffffffffffffffffffffffffffffff16908060000160149054906101000a900460020b905082565b600073__$b52f7ddb7db4526c8b5c81c46a9292f776$__634f76c058836040518263ffffffff1660e01b815260040161021591906106eb565b602060405180830381865af4158015610232573d6000803e3d6000fd5b505050506040513d601f19601f82011682018060405250810190610256919061071b565b905060405180604001604052808373ffffffffffffffffffffffffffffffffffffffff1681526020018260020b8152506000808201518160000160006101000a81548173ffffffffffffffffffffffffffffffffffffffff021916908373ffffffffffffffffffffffffffffffffffffffff16021790555060208201518160000160146101000a81548162ffffff021916908360020b62ffffff1602179055509050505050565b60008094509492505050565b60008094509492505050565b7f000000000000000000000000000000000000000000000000000000000000000081565b7f000000000000000000000000000000000000000000000000000000000000000081565b600073ffffffffffffffffffffffffffffffffffffffff82169050919050565b60006103888261035d565b9050919050565b6103988161037d565b82525050565b60006020820190506103b3600083018461038f565b92915050565b6103c28161035d565b82525050565b60008160020b9050919050565b6103de816103c8565b82525050565b60006040820190506103f960008301856103b9565b61040660208301846103d5565b9392505050565b600080fd5b61041b8161035d565b811461042657600080fd5b50565b60008135905061043881610412565b92915050565b6000602082840312156104545761045361040d565b5b600061046284828501610429565b91505092915050565b6104748161037d565b811461047f57600080fd5b50565b6000813590506104918161046b565b92915050565b6104a0816103c8565b81146104ab57600080fd5b50565b6000813590506104bd81610497565b92915050565b60006fffffffffffffffffffffffffffffffff82169050919050565b6104e8816104c3565b81146104f357600080fd5b50565b600081359050610505816104df565b92915050565b600080600080608085870312156105255761052461040d565b5b600061053387828801610482565b9450506020610544878288016104ae565b9350506040610555878288016104ae565b9250506060610566878288016104f6565b91505092959194509250565b6000819050919050565b61058581610572565b82525050565b60006040820190506105a0600083018561057c565b6105ad602083018461057c565b9392505050565b60008115159050919050565b6105c9816105b4565b81146105d457600080fd5b50565b6000813590506105e6816105c0565b92915050565b6000819050919050565b6105ff816105ec565b811461060a57600080fd5b50565b60008135905061061c816105f6565b92915050565b6000806000806080858703121561063c5761063b61040d565b5b600061064a87828801610482565b945050602061065b878288016105d7565b935050604061066c8782880161060d565b925050606061067d87828801610429565b91505092959194509250565b610692816105ec565b82525050565b60006040820190506106ad6000830185610689565b6106ba6020830184610689565b9392505050565b60006020820190506106d660008301846103d5565b92915050565b6106e58161035d565b82525050565b600060208201905061070060008301846106dc565b92915050565b60008151905061071581610497565b92915050565b6000602082840312156107315761073061040d565b5b600061073f84828501610706565b9150509291505056fea26469706673582212200c826d07bb402f4b0783aebbc820ccc96f3cfd6b5da78adc99d06e1b301306c764736f6c63430008110033","opcodes":"PUSH1 0xE0 PUSH1 0x40 MSTORE CALLVALUE DUP1 ISZERO PUSH2 0x10 JUMPI PUSH1 0x0 DUP1 REVERT JUMPDEST POP PUSH1 0x0 CALLER PUSH20 0xFFFFFFFFFFFFFFFFFFFFFFFFFFFFFFFFFFFFFFFF AND PUSH4 0x89035730 PUSH1 0x40 MLOAD DUP2 PUSH4 0xFFFFFFFF AND PUSH1 0xE0 SHL DUP2 MSTORE PUSH1 0x4 ADD PUSH1 0x60 PUSH1 0x40 MLOAD DUP1 DUP4 SUB DUP2 DUP7 GAS STATICCALL ISZERO DUP1 ISZERO PUSH2 0x5E JUMPI RETURNDATASIZE PUSH1 0x0 DUP1 RETURNDATACOPY RETURNDATASIZE PUSH1 0x0 REVERT JUMPDEST POP POP POP POP PUSH1 0x40 MLOAD RETURNDATASIZE PUSH1 0x1F NOT PUSH1 0x1F DUP3 ADD AND DUP3 ADD DUP1 PUSH1 0x40 MSTORE POP DUP2 ADD SWAP1 PUSH2 0x82 SWAP2 SWAP1 PUSH2 0x19E JUMP JUMPDEST DUP1 SWAP4 POP DUP2 PUSH20 0xFFFFFFFFFFFFFFFFFFFFFFFFFFFFFFFFFFFFFFFF AND PUSH1 0xA0 SWAP1 PUSH20 0xFFFFFFFFFFFFFFFFFFFFFFFFFFFFFFFFFFFFFFFF AND DUP2 MSTORE POP DUP3 PUSH20 0xFFFFFFFFFFFFFFFFFFFFFFFFFFFFFFFFFFFFFFFF AND PUSH1 0x80 SWAP1 PUSH20 0xFFFFFFFFFFFFFFFFFFFFFFFFFFFFFFFFFFFFFFFF AND DUP2 MSTORE POP POP POP POP DUP1 PUSH1 0x2 SIGNEXTEND PUSH1 0xC0 DUP2 PUSH1 0x2 SIGNEXTEND DUP2 MSTORE POP POP POP PUSH2 0x1F1 JUMP JUMPDEST PUSH1 0x0 DUP1 REVERT JUMPDEST PUSH1 0x0 PUSH20 0xFFFFFFFFFFFFFFFFFFFFFFFFFFFFFFFFFFFFFFFF DUP3 AND SWAP1 POP SWAP2 SWAP1 POP JUMP JUMPDEST PUSH1 0x0 PUSH2 0x132 DUP3 PUSH2 0x107 JUMP JUMPDEST SWAP1 POP SWAP2 SWAP1 POP JUMP JUMPDEST PUSH2 0x142 DUP2 PUSH2 0x127 JUMP JUMPDEST DUP2 EQ PUSH2 0x14D JUMPI PUSH1 0x0 DUP1 REVERT JUMPDEST POP JUMP JUMPDEST PUSH1 0x0 DUP2 MLOAD SWAP1 POP PUSH2 0x15F DUP2 PUSH2 0x139 JUMP JUMPDEST SWAP3 SWAP2 POP POP JUMP JUMPDEST PUSH1 0x0 DUP2 PUSH1 0x2 SIGNEXTEND SWAP1 POP SWAP2 SWAP1 POP JUMP JUMPDEST PUSH2 0x17B DUP2 PUSH2 0x165 JUMP JUMPDEST DUP2 EQ PUSH2 0x186 JUMPI PUSH1 0x0 DUP1 REVERT JUMPDEST POP JUMP JUMPDEST PUSH1 0x0 DUP2 MLOAD SWAP1 POP PUSH2 0x198 DUP2 PUSH2 0x172 JUMP JUMPDEST SWAP3 SWAP2 POP POP JUMP JUMPDEST PUSH1 0x0 DUP1 PUSH1 0x0 PUSH1 0x60 DUP5 DUP7 SUB SLT ISZERO PUSH2 0x1B7 JUMPI PUSH2 0x1B6 PUSH2 0x102 JUMP JUMPDEST JUMPDEST PUSH1 0x0 PUSH2 0x1C5 DUP7 DUP3 DUP8 ADD PUSH2 0x150 JUMP JUMPDEST SWAP4 POP POP PUSH1 0x20 PUSH2 0x1D6 DUP7 DUP3 DUP8 ADD PUSH2 0x150 JUMP JUMPDEST SWAP3 POP POP PUSH1 0x40 PUSH2 0x1E7 DUP7 DUP3 DUP8 ADD PUSH2 0x189 JUMP JUMPDEST SWAP2 POP POP SWAP3 POP SWAP3 POP SWAP3 JUMP JUMPDEST PUSH1 0x80 MLOAD PUSH1 0xA0 MLOAD PUSH1 0xC0 MLOAD PUSH2 0x77E PUSH2 0x220 PUSH1 0x0 CODECOPY PUSH1 0x0 PUSH2 0x317 ADD MSTORE PUSH1 0x0 PUSH2 0x33B ADD MSTORE PUSH1 0x0 PUSH2 0x17B ADD MSTORE PUSH2 0x77E PUSH1 0x0 RETURN INVALID PUSH1 0x80 PUSH1 0x40 MSTORE CALLVALUE DUP1 ISZERO PUSH2 0x10 JUMPI PUSH1 0x0 DUP1 REVERT JUMPDEST POP PUSH1 0x4 CALLDATASIZE LT PUSH2 0x7D JUMPI PUSH1 0x0 CALLDATALOAD PUSH1 0xE0 SHR DUP1 PUSH4 0xB8CCA34E GT PUSH2 0x5B JUMPI DUP1 PUSH4 0xB8CCA34E EQ PUSH2 0xDB JUMPI DUP1 PUSH4 0xC31B8D7A EQ PUSH2 0x10C JUMPI DUP1 PUSH4 0xD0C93A7C EQ PUSH2 0x13D JUMPI DUP1 PUSH4 0xD21220A7 EQ PUSH2 0x15B JUMPI PUSH2 0x7D JUMP JUMPDEST DUP1 PUSH4 0xDFE1681 EQ PUSH2 0x82 JUMPI DUP1 PUSH4 0x3850C7BD EQ PUSH2 0xA0 JUMPI DUP1 PUSH4 0x7169449B EQ PUSH2 0xBF JUMPI JUMPDEST PUSH1 0x0 DUP1 REVERT JUMPDEST PUSH2 0x8A PUSH2 0x179 JUMP JUMPDEST PUSH1 0x40 MLOAD PUSH2 0x97 SWAP2 SWAP1 PUSH2 0x39E JUMP JUMPDEST PUSH1 0x40 MLOAD DUP1 SWAP2 SUB SWAP1 RETURN JUMPDEST PUSH2 0xA8 PUSH2 0x19D JUMP JUMPDEST PUSH1 0x40 MLOAD PUSH2 0xB6 SWAP3 SWAP2 SWAP1 PUSH2 0x3E4 JUMP JUMPDEST PUSH1 0x40 MLOAD DUP1 SWAP2 SUB SWAP1 RETURN JUMPDEST PUSH2 0xD9 PUSH1 0x4 DUP1 CALLDATASIZE SUB DUP2 ADD SWAP1 PUSH2 0xD4 SWAP2 SWAP1 PUSH2 0x43E JUMP JUMPDEST PUSH2 0x1DC JUMP JUMPDEST STOP JUMPDEST PUSH2 0xF5 PUSH1 0x4 DUP1 CALLDATASIZE SUB DUP2 ADD SWAP1 PUSH2 0xF0 SWAP2 SWAP1 PUSH2 0x50B JUMP JUMPDEST PUSH2 0x2FD JUMP JUMPDEST PUSH1 0x40 MLOAD PUSH2 0x103 SWAP3 SWAP2 SWAP1 PUSH2 0x58B JUMP JUMPDEST PUSH1 0x40 MLOAD DUP1 SWAP2 SUB SWAP1 RETURN JUMPDEST PUSH2 0x126 PUSH1 0x4 DUP1 CALLDATASIZE SUB DUP2 ADD SWAP1 PUSH2 0x121 SWAP2 SWAP1 PUSH2 0x622 JUMP JUMPDEST PUSH2 0x309 JUMP JUMPDEST PUSH1 0x40 MLOAD PUSH2 0x134 SWAP3 SWAP2 SWAP1 PUSH2 0x698 JUMP JUMPDEST PUSH1 0x40 MLOAD DUP1 SWAP2 SUB SWAP1 RETURN JUMPDEST PUSH2 0x145 PUSH2 0x315 JUMP JUMPDEST PUSH1 0x40 MLOAD PUSH2 0x152 SWAP2 SWAP1 PUSH2 0x6C1 JUMP JUMPDEST PUSH1 0x40 MLOAD DUP1 SWAP2 SUB SWAP1 RETURN JUMPDEST PUSH2 0x163 PUSH2 0x339 JUMP JUMPDEST PUSH1 0x40 MLOAD PUSH2 0x170 SWAP2 SWAP1 PUSH2 0x39E JUMP JUMPDEST PUSH1 0x40 MLOAD DUP1 SWAP2 SUB SWAP1 RETURN JUMPDEST PUSH32 0x0 DUP2 JUMP JUMPDEST PUSH1 0x0 DUP1 PUSH1 0x0 ADD PUSH1 0x0 SWAP1 SLOAD SWAP1 PUSH2 0x100 EXP SWAP1 DIV PUSH20 0xFFFFFFFFFFFFFFFFFFFFFFFFFFFFFFFFFFFFFFFF AND SWAP1 DUP1 PUSH1 0x0 ADD PUSH1 0x14 SWAP1 SLOAD SWAP1 PUSH2 0x100 EXP SWAP1 DIV PUSH1 0x2 SIGNEXTEND SWAP1 POP DUP3 JUMP JUMPDEST PUSH1 0x0 PUSH20 0x0 PUSH4 0x4F76C058 DUP4 PUSH1 0x40 MLOAD DUP3 PUSH4 0xFFFFFFFF AND PUSH1 0xE0 SHL DUP2 MSTORE PUSH1 0x4 ADD PUSH2 0x215 SWAP2 SWAP1 PUSH2 0x6EB JUMP JUMPDEST PUSH1 0x20 PUSH1 0x40 MLOAD DUP1 DUP4 SUB DUP2 DUP7 GAS DELEGATECALL ISZERO DUP1 ISZERO PUSH2 0x232 JUMPI RETURNDATASIZE PUSH1 0x0 DUP1 RETURNDATACOPY RETURNDATASIZE PUSH1 0x0 REVERT JUMPDEST POP POP POP POP PUSH1 0x40 MLOAD RETURNDATASIZE PUSH1 0x1F NOT PUSH1 0x1F DUP3 ADD AND DUP3 ADD DUP1 PUSH1 0x40 MSTORE POP DUP2 ADD SWAP1 PUSH2 0x256 SWAP2 SWAP1 PUSH2 0x71B JUMP JUMPDEST SWAP1 POP PUSH1 0x40 MLOAD DUP1 PUSH1 0x40 ADD PUSH1 0x40 MSTORE DUP1 DUP4 PUSH20 0xFFFFFFFFFFFFFFFFFFFFFFFFFFFFFFFFFFFFFFFF AND DUP2 MSTORE PUSH1 0x20 ADD DUP3 PUSH1 0x2 SIGNEXTEND DUP2 MSTORE POP PUSH1 0x0 DUP1 DUP3 ADD MLOAD DUP2 PUSH1 0x0 ADD PUSH1 0x0 PUSH2 0x100 EXP DUP2 SLOAD DUP2 PUSH20 0xFFFFFFFFFFFFFFFFFFFFFFFFFFFFFFFFFFFFFFFF MUL NOT AND SWAP1 DUP4 PUSH20 0xFFFFFFFFFFFFFFFFFFFFFFFFFFFFFFFFFFFFFFFF AND MUL OR SWAP1 SSTORE POP PUSH1 0x20 DUP3 ADD MLOAD DUP2 PUSH1 0x0 ADD PUSH1 0x14 PUSH2 0x100 EXP DUP2 SLOAD DUP2 PUSH3 0xFFFFFF MUL NOT AND SWAP1 DUP4 PUSH1 0x2 SIGNEXTEND PUSH3 0xFFFFFF AND MUL OR SWAP1 SSTORE POP SWAP1 POP POP POP POP JUMP JUMPDEST PUSH1 0x0 DUP1 SWAP5 POP SWAP5 SWAP3 POP POP POP JUMP JUMPDEST PUSH1 0x0 DUP1 SWAP5 POP SWAP5 SWAP3 POP POP POP JUMP JUMPDEST PUSH32 0x0 DUP2 JUMP JUMPDEST PUSH32 0x0 DUP2 JUMP JUMPDEST PUSH1 0x0 PUSH20 0xFFFFFFFFFFFFFFFFFFFFFFFFFFFFFFFFFFFFFFFF DUP3 AND SWAP1 POP SWAP2 SWAP1 POP JUMP JUMPDEST PUSH1 0x0 PUSH2 0x388 DUP3 PUSH2 0x35D JUMP JUMPDEST SWAP1 POP SWAP2 SWAP1 POP JUMP JUMPDEST PUSH2 0x398 DUP2 PUSH2 0x37D JUMP JUMPDEST DUP3 MSTORE POP POP JUMP JUMPDEST PUSH1 0x0 PUSH1 0x20 DUP3 ADD SWAP1 POP PUSH2 0x3B3 PUSH1 0x0 DUP4 ADD DUP5 PUSH2 0x38F JUMP JUMPDEST SWAP3 SWAP2 POP POP JUMP JUMPDEST PUSH2 0x3C2 DUP2 PUSH2 0x35D JUMP JUMPDEST DUP3 MSTORE POP POP JUMP JUMPDEST PUSH1 0x0 DUP2 PUSH1 0x2 SIGNEXTEND SWAP1 POP SWAP2 SWAP1 POP JUMP JUMPDEST PUSH2 0x3DE DUP2 PUSH2 0x3C8 JUMP JUMPDEST DUP3 MSTORE POP POP JUMP JUMPDEST PUSH1 0x0 PUSH1 0x40 DUP3 ADD SWAP1 POP PUSH2 0x3F9 PUSH1 0x0 DUP4 ADD DUP6 PUSH2 0x3B9 JUMP JUMPDEST PUSH2 0x406 PUSH1 0x20 DUP4 ADD DUP5 PUSH2 0x3D5 JUMP JUMPDEST SWAP4 SWAP3 POP POP POP JUMP JUMPDEST PUSH1 0x0 DUP1 REVERT JUMPDEST PUSH2 0x41B DUP2 PUSH2 0x35D JUMP JUMPDEST DUP2 EQ PUSH2 0x426 JUMPI PUSH1 0x0 DUP1 REVERT JUMPDEST POP JUMP JUMPDEST PUSH1 0x0 DUP2 CALLDATALOAD SWAP1 POP PUSH2 0x438 DUP2 PUSH2 0x412 JUMP JUMPDEST SWAP3 SWAP2 POP POP JUMP JUMPDEST PUSH1 0x0 PUSH1 0x20 DUP3 DUP5 SUB SLT ISZERO PUSH2 0x454 JUMPI PUSH2 0x453 PUSH2 0x40D JUMP JUMPDEST JUMPDEST PUSH1 0x0 PUSH2 0x462 DUP5 DUP3 DUP6 ADD PUSH2 0x429 JUMP JUMPDEST SWAP2 POP POP SWAP3 SWAP2 POP POP JUMP JUMPDEST PUSH2 0x474 DUP2 PUSH2 0x37D JUMP JUMPDEST DUP2 EQ PUSH2 0x47F JUMPI PUSH1 0x0 DUP1 REVERT JUMPDEST POP JUMP JUMPDEST PUSH1 0x0 DUP2 CALLDATALOAD SWAP1 POP PUSH2 0x491 DUP2 PUSH2 0x46B JUMP JUMPDEST SWAP3 SWAP2 POP POP JUMP JUMPDEST PUSH2 0x4A0 DUP2 PUSH2 0x3C8 JUMP JUMPDEST DUP2 EQ PUSH2 0x4AB JUMPI PUSH1 0x0 DUP1 REVERT JUMPDEST POP JUMP JUMPDEST PUSH1 0x0 DUP2 CALLDATALOAD SWAP1 POP PUSH2 0x4BD DUP2 PUSH2 0x497 JUMP JUMPDEST SWAP3 SWAP2 POP POP JUMP JUMPDEST PUSH1 0x0 PUSH16 0xFFFFFFFFFFFFFFFFFFFFFFFFFFFFFFFF DUP3 AND SWAP1 POP SWAP2 SWAP1 POP JUMP JUMPDEST PUSH2 0x4E8 DUP2 PUSH2 0x4C3 JUMP JUMPDEST DUP2 EQ PUSH2 0x4F3 JUMPI PUSH1 0x0 DUP1 REVERT JUMPDEST POP JUMP JUMPDEST PUSH1 0x0 DUP2 CALLDATALOAD SWAP1 POP PUSH2 0x505 DUP2 PUSH2 0x4DF JUMP JUMPDEST SWAP3 SWAP2 POP POP JUMP JUMPDEST PUSH1 0x0 DUP1 PUSH1 0x0 DUP1 PUSH1 0x80 DUP6 DUP8 SUB SLT ISZERO PUSH2 0x525 JUMPI PUSH2 0x524 PUSH2 0x40D JUMP JUMPDEST JUMPDEST PUSH1 0x0 PUSH2 0x533 DUP8 DUP3 DUP9 ADD PUSH2 0x482 JUMP JUMPDEST SWAP5 POP POP PUSH1 0x20 PUSH2 0x544 DUP8 DUP3 DUP9 ADD PUSH2 0x4AE JUMP JUMPDEST SWAP4 POP POP PUSH1 0x40 PUSH2 0x555 DUP8 DUP3 DUP9 ADD PUSH2 0x4AE JUMP JUMPDEST SWAP3 POP POP PUSH1 0x60 PUSH2 0x566 DUP8 DUP3 DUP9 ADD PUSH2 0x4F6 JUMP JUMPDEST SWAP2 POP POP SWAP3 SWAP6 SWAP2 SWAP5 POP SWAP3 POP JUMP JUMPDEST PUSH1 0x0 DUP2 SWAP1 POP SWAP2 SWAP1 POP JUMP JUMPDEST PUSH2 0x585 DUP2 PUSH2 0x572 JUMP JUMPDEST DUP3 MSTORE POP POP JUMP JUMPDEST PUSH1 0x0 PUSH1 0x40 DUP3 ADD SWAP1 POP PUSH2 0x5A0 PUSH1 0x0 DUP4 ADD DUP6 PUSH2 0x57C JUMP JUMPDEST PUSH2 0x5AD PUSH1 0x20 DUP4 ADD DUP5 PUSH2 0x57C JUMP JUMPDEST SWAP4 SWAP3 POP POP POP JUMP JUMPDEST PUSH1 0x0 DUP2 ISZERO ISZERO SWAP1 POP SWAP2 SWAP1 POP JUMP JUMPDEST PUSH2 0x5C9 DUP2 PUSH2 0x5B4 JUMP JUMPDEST DUP2 EQ PUSH2 0x5D4 JUMPI PUSH1 0x0 DUP1 REVERT JUMPDEST POP JUMP JUMPDEST PUSH1 0x0 DUP2 CALLDATALOAD SWAP1 POP PUSH2 0x5E6 DUP2 PUSH2 0x5C0 JUMP JUMPDEST SWAP3 SWAP2 POP POP JUMP JUMPDEST PUSH1 0x0 DUP2 SWAP1 POP SWAP2 SWAP1 POP JUMP JUMPDEST PUSH2 0x5FF DUP2 PUSH2 0x5EC JUMP JUMPDEST DUP2 EQ PUSH2 0x60A JUMPI PUSH1 0x0 DUP1 REVERT JUMPDEST POP JUMP JUMPDEST PUSH1 0x0 DUP2 CALLDATALOAD SWAP1 POP PUSH2 0x61C DUP2 PUSH2 0x5F6 JUMP JUMPDEST SWAP3 SWAP2 POP POP JUMP JUMPDEST PUSH1 0x0 DUP1 PUSH1 0x0 DUP1 PUSH1 0x80 DUP6 DUP8 SUB SLT ISZERO PUSH2 0x63C JUMPI PUSH2 0x63B PUSH2 0x40D JUMP JUMPDEST JUMPDEST PUSH1 0x0 PUSH2 0x64A DUP8 DUP3 DUP9 ADD PUSH2 0x482 JUMP JUMPDEST SWAP5 POP POP PUSH1 0x20 PUSH2 0x65B DUP8 DUP3 DUP9 ADD PUSH2 0x5D7 JUMP JUMPDEST SWAP4 POP POP PUSH1 0x40 PUSH2 0x66C DUP8 DUP3 DUP9 ADD PUSH2 0x60D JUMP JUMPDEST SWAP3 POP POP PUSH1 0x60 PUSH2 0x67D DUP8 DUP3 DUP9 ADD PUSH2 0x429 JUMP JUMPDEST SWAP2 POP POP SWAP3 SWAP6 SWAP2 SWAP5 POP SWAP3 POP JUMP JUMPDEST PUSH2 0x692 DUP2 PUSH2 0x5EC JUMP JUMPDEST DUP3 MSTORE POP POP JUMP JUMPDEST PUSH1 0x0 PUSH1 0x40 DUP3 ADD SWAP1 POP PUSH2 0x6AD PUSH1 0x0 DUP4 ADD DUP6 PUSH2 0x689 JUMP JUMPDEST PUSH2 0x6BA PUSH1 0x20 DUP4 ADD DUP5 PUSH2 0x689 JUMP JUMPDEST SWAP4 SWAP3 POP POP POP JUMP JUMPDEST PUSH1 0x0 PUSH1 0x20 DUP3 ADD SWAP1 POP PUSH2 0x6D6 PUSH1 0x0 DUP4 ADD DUP5 PUSH2 0x3D5 JUMP JUMPDEST SWAP3 SWAP2 POP POP JUMP JUMPDEST PUSH2 0x6E5 DUP2 PUSH2 0x35D JUMP JUMPDEST DUP3 MSTORE POP POP JUMP JUMPDEST PUSH1 0x0 PUSH1 0x20 DUP3 ADD SWAP1 POP PUSH2 0x700 PUSH1 0x0 DUP4 ADD DUP5 PUSH2 0x6DC JUMP JUMPDEST SWAP3 SWAP2 POP POP JUMP JUMPDEST PUSH1 0x0 DUP2 MLOAD SWAP1 POP PUSH2 0x715 DUP2 PUSH2 0x497 JUMP JUMPDEST SWAP3 SWAP2 POP POP JUMP JUMPDEST PUSH1 0x0 PUSH1 0x20 DUP3 DUP5 SUB SLT ISZERO PUSH2 0x731 JUMPI PUSH2 0x730 PUSH2 0x40D JUMP JUMPDEST JUMPDEST PUSH1 0x0 PUSH2 0x73F DUP5 DUP3 DUP6 ADD PUSH2 0x706 JUMP JUMPDEST SWAP2 POP POP SWAP3 SWAP2 POP POP JUMP INVALID LOG2 PUSH5 0x6970667358 0x22 SLT KECCAK256 0xC DUP3 PUSH14 0x7BB402F4B0783AEBBC820CCC96F EXTCODECOPY REVERT PUSH12 0x5DA78ADC99D06E1B301306C7 PUSH5 0x736F6C6343 STOP ADDMOD GT STOP CALLER "},"methodIdentifiers":{"intialize(uint160)":"7169449b","mint(address,int24,int24,uint128)":"b8cca34e","slot0()":"3850c7bd","swap(address,bool,int256,uint160)":"c31b8d7a","tickSpacing()":"d0c93a7c","token0()":"0dfe1681","token1()":"d21220a7"}}}}}