{
  "_format": "hh-sol-artifact-1",
  "contractName": "SwapPool",
  "sourceName": "contracts/SwapPool.sol",
  "abi": [
    {
      "inputs": [],
      "stateMutability": "nonpayable",
      "type": "constructor"
    },
    {
      "inputs": [
        {
          "internalType": "uint160",
          "name": "sqrtPriceX96",
          "type": "uint160"
        }
      ],
      "name": "intialize",
      "outputs": [],
      "stateMutability": "nonpayable",
      "type": "function"
    },
    {
      "inputs": [
        {
          "internalType": "address",
          "name": "recipient",
          "type": "address"
        },
        {
          "internalType": "int24",
          "name": "tickerLower",
          "type": "int24"
        },
        {
          "internalType": "int24",
          "name": "tickerUpper",
          "type": "int24"
        },
        {
          "internalType": "uint128",
          "name": "amount",
          "type": "uint128"
        }
      ],
      "name": "mint",
      "outputs": [
        {
          "internalType": "uint256",
          "name": "amount0",
          "type": "uint256"
        },
        {
          "internalType": "uint256",
          "name": "amount1",
          "type": "uint256"
        }
      ],
      "stateMutability": "nonpayable",
      "type": "function"
    },
    {
      "inputs": [],
      "name": "slot0",
      "outputs": [
        {
          "internalType": "uint160",
          "name": "sqrtPriceX96",
          "type": "uint160"
        },
        {
          "internalType": "int24",
          "name": "tick",
          "type": "int24"
        }
      ],
      "stateMutability": "view",
      "type": "function"
    },
    {
      "inputs": [
        {
          "internalType": "address",
          "name": "recipient",
          "type": "address"
        },
        {
          "internalType": "bool",
          "name": "zeroForOne",
          "type": "bool"
        },
        {
          "internalType": "int256",
          "name": "amountSpecified",
          "type": "int256"
        },
        {
          "internalType": "uint160",
          "name": "sqrtPriceLimitX96",
          "type": "uint160"
        }
      ],
      "name": "swap",
      "outputs": [
        {
          "internalType": "int256",
          "name": "amount0",
          "type": "int256"
        },
        {
          "internalType": "int256",
          "name": "amount1",
          "type": "int256"
        }
      ],
      "stateMutability": "nonpayable",
      "type": "function"
    },
    {
      "inputs": [],
      "name": "tickSpacing",
      "outputs": [
        {
          "internalType": "int24",
          "name": "",
          "type": "int24"
        }
      ],
      "stateMutability": "view",
      "type": "function"
    },
    {
      "inputs": [],
      "name": "token0",
      "outputs": [
        {
          "internalType": "address",
          "name": "",
          "type": "address"
        }
      ],
      "stateMutability": "view",
      "type": "function"
    },
    {
      "inputs": [],
      "name": "token1",
      "outputs": [
        {
          "internalType": "address",
          "name": "",
          "type": "address"
        }
      ],
      "stateMutability": "view",
      "type": "function"
    }
  ],
  "bytecode": "0x60e060405234801561001057600080fd5b5060003373ffffffffffffffffffffffffffffffffffffffff1663890357306040518163ffffffff1660e01b8152600401606060405180830381865afa15801561005e573d6000803e3d6000fd5b505050506040513d601f19601f82011682018060405250810190610082919061019e565b8093508173ffffffffffffffffffffffffffffffffffffffff1660a09073ffffffffffffffffffffffffffffffffffffffff168152508273ffffffffffffffffffffffffffffffffffffffff1660809073ffffffffffffffffffffffffffffffffffffffff168152505050508060020b60c08160020b81525050506101f1565b600080fd5b600073ffffffffffffffffffffffffffffffffffffffff82169050919050565b600061013282610107565b9050919050565b61014281610127565b811461014d57600080fd5b50565b60008151905061015f81610139565b92915050565b60008160020b9050919050565b61017b81610165565b811461018657600080fd5b50565b60008151905061019881610172565b92915050565b6000806000606084860312156101b7576101b6610102565b5b60006101c586828701610150565b93505060206101d686828701610150565b92505060406101e786828701610189565b9150509250925092565b60805160a05160c05161077e61022060003960006103170152600061033b0152600061017b015261077e6000f3fe608060405234801561001057600080fd5b506004361061007d5760003560e01c8063b8cca34e1161005b578063b8cca34e146100db578063c31b8d7a1461010c578063d0c93a7c1461013d578063d21220a71461015b5761007d565b80630dfe1681146100825780633850c7bd146100a05780637169449b146100bf575b600080fd5b61008a610179565b604051610097919061039e565b60405180910390f35b6100a861019d565b6040516100b69291906103e4565b60405180910390f35b6100d960048036038101906100d4919061043e565b6101dc565b005b6100f560048036038101906100f0919061050b565b6102fd565b60405161010392919061058b565b60405180910390f35b61012660048036038101906101219190610622565b610309565b604051610134929190610698565b60405180910390f35b610145610315565b60405161015291906106c1565b60405180910390f35b610163610339565b604051610170919061039e565b60405180910390f35b7f000000000000000000000000000000000000000000000000000000000000000081565b60008060000160009054906101000a900473ffffffffffffffffffffffffffffffffffffffff16908060000160149054906101000a900460020b905082565b600073__$b52f7ddb7db4526c8b5c81c46a9292f776$__634f76c058836040518263ffffffff1660e01b815260040161021591906106eb565b602060405180830381865af4158015610232573d6000803e3d6000fd5b505050506040513d601f19601f82011682018060405250810190610256919061071b565b905060405180604001604052808373ffffffffffffffffffffffffffffffffffffffff1681526020018260020b8152506000808201518160000160006101000a81548173ffffffffffffffffffffffffffffffffffffffff021916908373ffffffffffffffffffffffffffffffffffffffff16021790555060208201518160000160146101000a81548162ffffff021916908360020b62ffffff1602179055509050505050565b60008094509492505050565b60008094509492505050565b7f000000000000000000000000000000000000000000000000000000000000000081565b7f000000000000000000000000000000000000000000000000000000000000000081565b600073ffffffffffffffffffffffffffffffffffffffff82169050919050565b60006103888261035d565b9050919050565b6103988161037d565b82525050565b60006020820190506103b3600083018461038f565b92915050565b6103c28161035d565b82525050565b60008160020b9050919050565b6103de816103c8565b82525050565b60006040820190506103f960008301856103b9565b61040660208301846103d5565b9392505050565b600080fd5b61041b8161035d565b811461042657600080fd5b50565b60008135905061043881610412565b92915050565b6000602082840312156104545761045361040d565b5b600061046284828501610429565b91505092915050565b6104748161037d565b811461047f57600080fd5b50565b6000813590506104918161046b565b92915050565b6104a0816103c8565b81146104ab57600080fd5b50565b6000813590506104bd81610497565b92915050565b60006fffffffffffffffffffffffffffffffff82169050919050565b6104e8816104c3565b81146104f357600080fd5b50565b600081359050610505816104df565b92915050565b600080600080608085870312156105255761052461040d565b5b600061053387828801610482565b9450506020610544878288016104ae565b9350506040610555878288016104ae565b9250506060610566878288016104f6565b91505092959194509250565b6000819050919050565b61058581610572565b82525050565b60006040820190506105a0600083018561057c565b6105ad602083018461057c565b9392505050565b60008115159050919050565b6105c9816105b4565b81146105d457600080fd5b50565b6000813590506105e6816105c0565b92915050565b6000819050919050565b6105ff816105ec565b811461060a57600080fd5b50565b60008135905061061c816105f6565b92915050565b6000806000806080858703121561063c5761063b61040d565b5b600061064a87828801610482565b945050602061065b878288016105d7565b935050604061066c8782880161060d565b925050606061067d87828801610429565b91505092959194509250565b610692816105ec565b82525050565b60006040820190506106ad6000830185610689565b6106ba6020830184610689565b9392505050565b60006020820190506106d660008301846103d5565b92915050565b6106e58161035d565b82525050565b600060208201905061070060008301846106dc565b92915050565b60008151905061071581610497565b92915050565b6000602082840312156107315761073061040d565b5b600061073f84828501610706565b9150509291505056fea26469706673582212200c826d07bb402f4b0783aebbc820ccc96f3cfd6b5da78adc99d06e1b301306c764736f6c63430008110033",
  "linkReferences": {
    "contracts/libraries/TickMath.sol": {
      "TickMath": [
        {
          "length": 20,
          "start": 1024
        }
      ]
    }
  },
  "deployedLinkReferences": {
    "contracts/libraries/TickMath.sol": {
      "TickMath": [
        {
          "length": 20,
          "start": 480
        }
      ]
    }
  }
}