{
  "_format": "hh-sol-artifact-1",
  "contractName": "TickMath",
  "sourceName": "contracts/libraries/TickMath.sol",
  "abi": [
    {
      "inputs": [
        {
          "internalType": "uint160",
          "name": "sqrtPriceX96",
          "type": "uint160"
        }
      ],
      "name": "getTickAtSqrtRatio",
      "outputs": [
        {
          "internalType": "int24",
          "name": "",
          "type": "int24"
        }
      ],
      "stateMutability": "view",
      "type": "function"
    }
  ],
  "bytecode": "0x61015c610053600b82828239805160001a607314610046577f4e487b7100000000000000000000000000000000000000000000000000000000600052600060045260246000fd5b30600052607381538281f3fe73000000000000000000000000000000000000000030146080604052600436106100355760003560e01c80634f76c0581461003a575b600080fd5b610054600480360381019061004f91906100c2565b61006a565b604051610061919061010b565b60405180910390f35b6000919050565b600080fd5b600073ffffffffffffffffffffffffffffffffffffffff82169050919050565b61009f81610076565b81146100aa57600080fd5b50565b6000813590506100bc81610096565b92915050565b6000602082840312156100d8576100d7610071565b5b60006100e6848285016100ad565b91505092915050565b60008160020b9050919050565b610105816100ef565b82525050565b600060208201905061012060008301846100fc565b9291505056fea26469706673582212203fd7b7447bf11ee79e57205bf0b859134d4ee1703b7d64e2f9a27f162c59d3ed64736f6c63430008110033",
  "linkReferences": {},
  "deployedLinkReferences": {}
}